:020000040800F2
:1000000000500020F1260008B9190008BB190008AB
:10001000BD190008BF190008C11900080000000040
:10002000000000000000000000000000C3190008EC
:10003000C519000800000000C7190008C919000808
:100040003927000839270008392700083927000810
:100050003927000839270008392700083927000800
:1000600039270008392700083927000839270008F0
:1000700039270008392700083927000839270008E0
:1000800039270008392700083927000839270008D0
:1000900039270008392700083927000839270008C0
:1000A00039270008392700083927000839270008B0
:1000B00039270008392700083927000839270008A0
:1000C0003927000839270008392700083927000890
:1000D0003927000839270008392700083927000880
:1000E00039270008392700083927000800000000D8
:1000F0000000000000000000000000000000000000
:0C01000000000000000000005FF808F1A3
:1001100010B5054C237833B9044B13B10448AFF341
:1001200000800123237010BDE801002000000000C2
:100130009C6F000808B5034B1BB103490348AFF39C
:10014000008008BD00000000EC0100209C6F00084A
:1001500010F8012B11F8013B012A28BF9A42F7D071
:10016000D01A7047034613F8012B002AFBD1181A46
:100170000138704781F0004102E000BF83F0004386
:1001800030B54FEA41044FEA430594EA050F08BF32
:1001900090EA020F1FBF54EA000C55EA020C7FEAF6
:1001A000645C7FEA655C00F0E2804FEA5454D4EB73
:1001B0005555B8BF6D420CDD2C4480EA020281EA3D
:1001C000030382EA000083EA010180EA020281EA75
:1001D0000303362D88BF30BD11F0004F4FEA0131C7
:1001E0004FF4801C4CEA113102D0404261EB4101D6
:1001F00013F0004F4FEA03334CEA133302D052425C
:1002000063EB430394EA050F00F0A780A4F1010417
:10021000D5F1200E0DDB02FA0EFC22FA05F2801851
:1002200041F1000103FA0EF2801843FA05F3594137
:100230000EE0A5F120050EF1200E012A03FA0EFCB6
:1002400028BF4CF0020C43FA05F3C01851EBE371E0
:1002500001F0004507D54FF0000EDCF1000C7EEBFD
:1002600000006EEB0101B1F5801F1BD3B1F5001F3B
:100270000CD349085FEA30004FEA3C0C04F101045A
:100280004FEA445212F5800F80F09A80BCF1004F83
:1002900008BF5FEA500C50F1000041EB045141EA05
:1002A000050130BD5FEA4C0C404141EB0101013CCE
:1002B00028BFB1F5801FE9D291F0000F04BF0146BD
:1002C0000020B1FA81F308BF2033A3F10B03B3F18F
:1002D00020020CDA0C3208DD02F1140CC2F10C021F
:1002E00001FA0CF021FA02F10CE002F11402D8BF7D
:1002F000C2F1200C01FA02F120FA0CFCDCBF41EA49
:100300000C019040E41AA2BF01EB0451294330BD17
:100310006FEA04041F3C1CDA0C340EDC04F11404F4
:10032000C4F1200220FA04F001FA02F340EA0300CB
:1003300021FA04F345EA030130BDC4F10C04C4F111
:10034000200220FA02F001FA04F340EA03002946F1
:1003500030BD21FA04F0294630BD94F0000F83F43B
:10036000801306BF81F480110134013D4EE77FEA1E
:10037000645C18BF7FEA655C29D094EA050F08BF6A
:1003800090EA020F05D054EA000C04BF194610464B
:1003900030BD91EA030F1EBF0021002030BD5FEA8F
:1003A000545C05D14000494128BF41F0004130BDB7
:1003B00014F580043CBF01F5801130BD01F000450B
:1003C00045F0FE4141F470014FF0000030BD7FEA7E
:1003D000645C1ABF194610467FEA655C1CBF0B4679
:1003E000024650EA013406BF52EA033591EA030F90
:1003F00041F4002130BD00BF90F0000F04BF002188
:10040000704730B54FF4806404F132044FF00005BA
:100410004FF0000150E700BF90F0000F04BF002133
:10042000704730B54FF4806404F1320410F0004599
:1004300048BF40424FF000013EE700BF42004FEA94
:10044000E2014FEA31014FEA02701FBF12F07F4311
:1004500093F07F4F81F06051704732F07F4208BFC8
:10046000704793F07F4F04BF41F40021704730B5CF
:100470004FF4607401F0004521F000411CE700BF1B
:1004800050EA010208BF704730B54FF000050AE09E
:1004900050EA010208BF704730B511F0004502D59F
:1004A000404261EB41014FF4806404F132045FEAA1
:1004B000915C3FF4D8AE4FF003025FEADC0C18BF4A
:1004C00003325FEADC0C18BF033202EBDC02C2F13C
:1004D000200300FA03FC20FA02F001FA03FE40EACE
:1004E0000E0021FA02F11444BDE600BF70B54FF0D2
:1004F000FF0C4CF4E06C1CEA11541DBF1CEA1355B0
:1005000094EA0C0F95EA0C0F00F0DEF82C4481EA17
:10051000030621EA4C5123EA4C5350EA013518BF37
:1005200052EA033541F4801143F4801338D0A0FB24
:1005300002CE4FF00005E1FB02E506F00042E0FBD1
:1005400003E54FF00006E1FB03569CF0000F18BFD7
:100550004EF0010EA4F1FF04B6F5007F64F540747F
:1005600004D25FEA4E0E6D4146EB060642EAC62112
:1005700041EA55514FEAC52040EA5E504FEACE2E7F
:10058000B4F1FD0C88BFBCF5E06F1ED8BEF1004F82
:1005900008BF5FEA500E50F1000041EB045170BDFE
:1005A00006F0004646EA010140EA020081EA030142
:1005B000B4EB5C04C2BFD4EB0C0541EA045170BD3E
:1005C00041F480114FF0000E013C00F3AB8014F1B8
:1005D000360FDEBF002001F0004170BDC4F1000401
:1005E000203C35DA0C341BDC04F11404C4F1200582
:1005F00000FA05F320FA04F001FA05F240EA0200DD
:1006000001F0004221F0004110EBD37021FA04F612
:1006100042EB06015EEA430E08BF20EAD37070BDCC
:10062000C4F10C04C4F1200500FA04F320FA05F02B
:1006300001FA04F240EA020001F0004110EBD3702D
:1006400041F100015EEA430E08BF20EAD37070BD9D
:10065000C4F1200500FA05F24EEA020E20FA04F376
:1006600001FA05F243EA020321FA04F001F0004125
:1006700021FA04F220EA020000EBD3705EEA430E96
:1006800008BF20EAD37070BD94F0000F0FD101F0C5
:100690000046400041EB010111F4801F08BF013CFE
:1006A000F7D041EA060195F0000F18BF704703F03C
:1006B0000046520043EB030313F4801F08BF013DC3
:1006C000F7D043EA0603704794EA0C0F0CEA13557F
:1006D00018BF95EA0C0F0CD050EA410618BF52EA39
:1006E0004306D1D181EA030101F000414FF000003F
:1006F00070BD50EA410606BF1046194652EA43064D
:1007000019D094EA0C0F02D150EA013613D195EAC0
:100710000C0F05D152EA03361CBF104619460AD108
:1007200081EA030101F0004141F0FE4141F4700112
:100730004FF0000070BD41F0FE4141F4780170BD02
:1007400070B54FF0FF0C4CF4E06C1CEA11541DBF67
:100750001CEA135594EA0C0F95EA0C0F00F0A7F869
:10076000A4EB050481EA030E52EA03354FEA013196
:1007700000F088804FEA03334FF0805545EA1313A9
:1007800043EA12634FEA022245EA111545EA106571
:100790004FEA00260EF000419D4208BF964244F108
:1007A000FD0404F5407402D25B084FEA3202B61A27
:1007B00065EB03055B084FEA32024FF480104FF4FB
:1007C000002CB6EB020E75EB030E22BFB61A75466F
:1007D00040EA0C005B084FEA3202B6EB020E75EB02
:1007E000030E22BFB61A754640EA5C005B084FEA6A
:1007F0003202B6EB020E75EB030E22BFB61A754637
:1008000040EA9C005B084FEA3202B6EB020E75EB41
:10081000030E22BFB61A754640EADC0055EA060E02
:1008200018D04FEA051545EA16754FEA06164FEA45
:10083000C30343EA52734FEAC2025FEA1C1CC0D1F1
:1008400011F4801F0BD141EA00014FF000004FF07E
:10085000004CB6E711F4801F04BF01430020B4F13F
:10086000FD0C88BFBCF5E06F3FF6AFAEB5EB030CF7
:1008700004BFB6EB020C5FEA500C50F1000041EBF4
:10088000045170BD0EF0004E4EEA113114EB5C04C1
:10089000C2BFD4EB0C0541EA045170BD41F4801194
:1008A0004FF0000E013C90E645EA060E8DE60CEA9C
:1008B000135594EA0C0F08BF95EA0C0F3FF43BAFB9
:1008C00094EA0C0F0AD150EA01347FF434AF95EA70
:1008D0000C0F7FF425AF104619462CE795EA0C0F54
:1008E00006D152EA03353FF4FDAE1046194622E721
:1008F00050EA410618BF52EA43067FF4C5AE50EAFB
:1009000041047FF40DAF52EA43057FF4EBAE12E7EA
:100910004FF0FF3C06E000BF4FF0010C02E000BFCB
:100920004FF0010C4DF804CD4FEA410C7FEA6C5CAE
:100930004FEA430C18BF7FEA6C5C1BD001B050EA51
:10094000410C0CBF52EA430C91EA030F02BF90EA3C
:10095000020F0020704710F1000F91EA030F58BFFB
:10096000994208BF90422CBFD8176FEAE37040F05D
:10097000010070474FEA410C7FEA6C5C02D150EAFB
:10098000013C07D14FEA430C7FEA6C5CD6D152EAB6
:10099000033CD3D05DF8040B704700BF844610467B
:1009A00062468C461946634600E000BF01B5FFF77A
:1009B000B7FF002848BF10F1000F01BD4DF808ED4A
:1009C000FFF7F4FF0CBF012000205DF808FB00BF1B
:1009D0004DF808EDFFF7EAFF34BF012000205DF875
:1009E00008FB00BF4DF808EDFFF7E0FF94BF0120C2
:1009F00000205DF808FB00BF4DF808EDFFF7CEFFC3
:100A000094BF012000205DF808FB00BF4DF808ED01
:100A1000FFF7C4FF34BF012000205DF808FB00BFD2
:100A20004FEA410C7FEA6C5C02D150EA013C0AD1EA
:100A30004FEA430C7FEA6C5C02D152EA033C02D1DC
:100A40004FF0000070474FF0010070474FEA41023D
:100A500012F5001215D211D56FF47873B3EB625210
:100A600012D94FEAC12343F0004343EA505311F037
:100A7000004F23FA02F018BF404270474FF00000C9
:100A8000704750EA013005D111F0004008BF6FF007
:100A9000004070474FF00000704700BF03685A00E5
:100AA0004CBF43F0004323F000431844704700BF9D
:100AB0002DE9F84339B34F1E044615463E464FF024
:100AC000000808EB060101EBD171491004EBC109E4
:100AD0004846FFF7E3FF0346C80008308F42204432
:100AE0000BD0AB420BD8FFF7D9FF0138A84201F178
:100AF0000108E6D34846BDE8F883AB42FAD98845F9
:100B000001D04E1EDDE74FF000094846BDE8F883EE
:100B1000012807D0022807D0044B00280CBF184634
:100B200000207047024870470248704701120008D1
:100B3000051200080912000830B5244B044683B0A2
:100B40008D1E3BB3284601A9AFF30080E8B101999F
:100B50002A46FFF7ADFF0146B8B1FFF79FFF4B688C
:100B6000A064012B2ED0002B27DB081DFFF796FF7A
:100B70000023C4E913030368002B12DBFFF78EFF89
:100B800003460020236103B030BD00230920236108
:100B900003B030BD0E4B0F491846C91AC910019158
:100BA000D6E7C3F30360FFF7B3FF0028034614BF83
:100BB00000200920236103B030BD0123081DC4E9D2
:100BC0001303D8E7002305202361DCE700000000C1
:100BD000747D00080C7F0008036810B5DA0704462E
:100BE00006D49B0700F1480009D500F05DFC23689E
:100BF000590709D51A070ED5DB0613D510BD00F02D
:100C00004BFC23685907F5D404F1D00000F054FCE4
:100C100023681A07F0D404F5A87000F055FC236887
:100C2000DB06EBD404F5E870BDE8104000F090BCA2
:100C3000092070470346006800B11844704700BFA0
:100C4000704700BF70B504460E462046316CFFF772
:100C500073FF054698B9D6F840C0324621460120B8
:100C60002369C4F814C098470828EED0072806D195
:100C70002846316CFFF7E4FF301D00F001FC03F063
:100C800003FA00BF2DE9F0474FF0000AADF5727D81
:100C90000DF10C0E01F1040CC768D0F8188006465F
:100CA0001446BCE80F00AEE80F00BCE80F00AEE849
:100CB0000F00BCE80F00AEE80F009CE80F0002AD8B
:100CC0008EE80F00C5F800A021E02B6C4FF4F07205
:100CD000294673617AA804F07FFE31465046336995
:100CE0007AAA9847889C82466C64334632464946C5
:100CF0000120CDE90058B8470446F0B94FF4F0722E
:100D000028467AA904F068FEBAF1080F1BD13046D4
:100D1000296CFFF711FF04F109095FFA89FA04460B
:100D20000028D2D0A96B3346696432460120CDE950
:100D300000584AF01001B84700B1092420460DF5CB
:100D4000727DBDE8F087BAF1070FF6D12046296C15
:100D5000FFF776FF03A800F093FB00BF406C7047DD
:100D6000F0B54FF0FF37CB6BF9B00B6401AC01F17C
:100D7000040C0E460546BCE80F000FC4BCE80F008B
:100D80000FC4BCE80F000FC49CE80F0084E80F00FC
:100D9000009706E06A4629462B69984708280446CA
:100DA00008D128461099FFF7C7FE0028F2D0092085
:100DB00079B0F0BD6846FFF70FFF062CF7D131463A
:100DC0002846FFF73FFF00BF10B414468461DC6B78
:100DD000C16000221C64194610BC53E770B543691A
:100DE000C6680B64AEB90A46036904460D4601465F
:100DF00002209847072805D008280FD12946204609
:100E0000FFF720FF3046296CFFF71AFF281D00F07E
:100E100037FB0122FFF736FF03F036F903F034F910
:100E2000C2682AB1D1F83CC00022C1F840C029E70D
:100E300096E700BF704700BF836801460BB10120F1
:100E400018477047012912D009D873B90F2A0CD856
:100E500000EB820042681846009B1A607047033915
:100E6000012994BF012002207047022070470846E4
:100E7000704700BF002300B585B00A4603A9009162
:100E80001946FFF7DFFF039805B05DF804FB00BFCC
:100E9000012912D009D873B90F2A0CD8009900EB98
:100EA000820209681846516070470339012994BFCE
:100EB000012002207047022070470846704700BF9B
:100EC000002310B584B003AC039200940A4619467F
:100ED000FFF7DEFF04B010BD70B54FF0FF36D36BE7
:100EE000ADF50E7D13640DF15C0E02F1040C0546A8
:100EF0000C46BCE80F00AEE80F00BCE80F00AEE8FF
:100F00000F00BCE80F00AEE80F009CE80F008EE871
:100F10000F00169612E00C2116A86A46FFF7D0FFC4
:100F2000214616A8A84778B969460820049B16AA46
:100F300098470528064608D0092805D0684626990E
:100F4000FFF7FAFD0028E6D0092616A8FFF744FEB1
:100F500030460DF50E7D70BD2DE9F04F1E46CC6C70
:100F600089B054F8043B0D46174600F00308069478
:100F7000002E79D002228DF81C201A0C8DF81D202D
:100F80001B04D2B2059304EB82042B6DB8F1020F5F
:100F900008BFAC6B13F001030CD0384605A900F074
:100FA00071FB18B9082009B0BDE8F08F092009B01D
:100FB000BDE8F08FD4F800A0BAF1000FEDD0019396
:100FC00000F008030293022E4AD0B4F800A0B4F84F
:100FD00002900434AA6C0F21384629F0010B934487
:100FE000FFF748FF834539D82AF001025A4482426C
:100FF00094BF002001204FEA490303F002030AF0E6
:10100000010A43EA0A03012B49D0022B32D0002BFC
:10101000CCD1B8F1000F02D0002840F0CE800434CB
:10102000D4F800A0BAF1000FCDD1384605A900F0E0
:1010300029FB0028BAD1019B002BB3D00F213846E1
:10104000FFF718FF0E2102463846FFF739FF3846F2
:101050000F216A4AFFF734FF0720A8E70020CAE7FC
:10106000D4F804900834B5E71B0205930323ADF8C8
:101070001C308AE7236823F0004BB8F1000F45D1FC
:1010800028B1029A002A5CD0BBF1000F74D0002B6B
:1010900000DA04340BF1010B04EB8B04C0E7B8F168
:1010A000000F19D1B0B163682268991C4FEAD2725F
:1010B0003FF47CAF05F158010133049100F09180B9
:1010C000201DFFF7B7FD04AB0146284602F00EFBDA
:1010D00000285CD10834A3E70D213846D5F82090CC
:1010E000FFF7C8FE8145F5D1AB6A9C42F2D120469C
:1010F000FFF7D4FC0F2102463846FFF7E1FE3846E1
:101100002A460021FFF7DCFE072050E70D21384674
:10111000D5F82090FFF7AEFE814501D02368B6E7F1
:10112000AB6A9C42FAD104230022C5E90B23E318E1
:10113000C5F828B06B632368002B5ADB01230193A9
:10114000A8E705F15803CDF80C809146B04604F1AC
:10115000040A1E460EE050460496FFF76BFD00227F
:10116000014604AB284609F101090AF1040A02F01C
:10117000BDFAE8B9D945EED10D213846FFF77AFE20
:101180000346049A0620C5E909242B620FE781462D
:101190000D213846FFF76EFEB9F1020F286225D106
:1011A0002B46049A43F82C2F6B620620AC62FEE6B5
:1011B00046462368DDF80C8069E72046FFF76EFCA1
:1011C00002460434AC632846144602F0EDFA0028C7
:1011D0003FF4ECAE384622460F21FFF771FE0720A0
:1011E000E5E60D213846FFF745FE2862049B6B6259
:1011F000DBE70BF1010004EB800079E7D13F000849
:101200000023A9E60123A7E60223A5E62DE9F04382
:10121000064615461C46C3B0042900F2B880DFE834
:1012200001F09C56B62D0300002C40F0B080102A2F
:1012300000F2AD800368D80600F1F18020AF384697
:1012400000F090F9012438460023B16B04FA03F250
:101250002A4203F1010305D00A4652F804CB114695
:10126000C0F800C0042B00F10400EFD13846B16390
:1012700000F06EF9002043B0BDE8F083032C40F08D
:10128000868094B204EB1243102B4FEA12457ED8AD
:1012900003681F0700F1CB8020AF384600F036F915
:1012A000B26B07EBC50154B10B4601EBC401D01A78
:1012B000E4001D5843F8045B8B42FAD122443846BF
:1012C000B26300F001F9002043B0BDE8F083012CC7
:1012D0004FEA124895B256D0052C58D108EB0509B3
:1012E000B9F1200F53D8B8F10F0F73D9A946002DCB
:1012F00040F08480B36B65B320AF4FF0000907EB7B
:10130000C807043F03EBC50553F8041BAB4247F87D
:10131000041FF9D1B9F1000F0FD06F4641461029D3
:1013200038BF102107EBC101843903EBC90553F81D
:10133000040BAB4241F8040FF9D1012C7FD0B8F176
:101340000F0FB56342D9B9F1000F02D0684600F023
:10135000B3F8002043B0BDE8F083C4B923460124AC
:10136000826B371DA8B204FA03F101421CBF52F888
:10137000041B47F823100133102BF4D115F400504F
:10138000E7D1B26304E008EB0503102B03D9022078
:1013900043B0BDE8F083B8F10F0FF8D83368DA072F
:1013A00006D5304623F0030340F8483B00F078F8B8
:1013B00020AF384600F074F8B36B002D9DD11D4668
:1013C00004353846B56300F067F8C2E720A800F09E
:1013D0006BF8B8E7B9F1100F3FD9A9F110093368DC
:1013E000D90708D5304623F0010343F0020340F843
:1013F000483B00F05DF8B9F1000F31D033685A076F
:101400001FD4B8F10F0F24D96F46C8F11005384624
:1014100000F056F8002DB36B80DD20AF6FE723F0AE
:101420001003336006F5E87000F09CF806E723F03F
:101430000803036000F5A87000F068F82CE720AFFF
:10144000BEE7304623F0040340F8D03B00F038F804
:10145000D7E720A800F02CF8D6E74FF00009BEE748
:10146000B8F10F0F3FF646AF20AF384600F020F836
:10147000B36B002D7FF441AF384600F015F868E7F4
:1014800000F1340191E838009C46A6464CF8045D12
:1014900090E8FF0FE54600BD90EC210B704700BFC0
:1014A00080EC210B704700BF90EC200B704700BF11
:1014B00080EC200B704700BFD0EC200B704700BFC2
:1014C000C0EC200B704700BFF0EC0201F0EC021101
:1014D000F0EC0221F0EC0231F0EC0241F0EC0251B0
:1014E000F0EC0261F0EC0271F0EC0281F0EC0291A0
:1014F000F0EC02A1F0EC02B1F0EC02C1F0EC02D190
:10150000F0EC02E1F0EC02F1704700BFE0EC020108
:10151000E0EC0211E0EC0221E0EC0231E0EC0241EF
:10152000E0EC0251E0EC0261E0EC0271E0EC0281DF
:10153000E0EC0291E0EC02A1E0EC02B1E0EC02C1CF
:10154000E0EC02D1E0EC02E1E0EC02F1704700BF18
:10155000B0FC0181B0FC0191B0FC01A1B0FC01B173
:10156000704700BFA0FC0181A0FC0191A0FC01A17B
:10157000A0FC01B1704700BFEC4600B52DE900505A
:101580002DE9FF1F4FF000032DE90C0001A9FFF723
:10159000E7FBDDF840E012B0704700BFEC4600B555
:1015A0002DE900502DE9FF1F4FF000032DE90C003D
:1015B00001A9FFF713FCDDF840E012B0704700BF4F
:1015C000EC4600B52DE900502DE9FF1F4FF0000358
:1015D0002DE90C0001A9FFF723FCDDF840E012B073
:1015E000704700BFEC4600B52DE900502DE9FF1F04
:1015F0004FF000032DE90C0001ABFFF7E5FBDDF830
:1016000040E012B0704700BFEC4600B52DE9005035
:101610002DE9FF1F4FF000032DE90C0001AAFFF791
:101620005BFCDDF840E012B0704700BF027A034671
:101630007AB9427AA2B14FF0030C4168013A427282
:1016400008680A1D5A60020283F808C0000E1A607A
:1016500070470068013A1A7202021A60000E704761
:10166000B0207047002300B585B003A900910C227B
:101670001946FFF7E7FB039805B05DF804FB00BFD0
:10168000F0E700BF2DE9F0434FF0000805460E4695
:1016900085B03046FFF7CAFFB028044600F0BA8094
:1016A000070620D500F0F003802B4DD0902B36D0CC
:1016B000A02B60D0B02B73D0C02B00F08A8000F03C
:1016C000F803D02B0BD100F00702013205230121D2
:1016D000284642F40022FFF799FD0028D9D00920BE
:1016E00005B0BDE8F0838300DBB21F1D00230DF1C0
:1016F0000C0919460D222846CDF80090FFF7A2FBF1
:10170000039B60064CBFDF1BFF1800230D222846F9
:101710001946CDF800900397FFF7BAFBB9E700F040
:101720000D030D2BDBD0002303AF194600F00F0291
:1017300000972846FFF786FB00230D22284619460E
:101740000097FFF7A5FBA4E73046FFF76FFF2402E1
:101750002043B0F5004FC2D00023040119462846AB
:10176000A2B2FFF753FD0028B9D114F4004F18BFFF
:101770004FF001088DE7C3434FF47F6203F0070386
:101780001A410023010702F47F6248BF42F48042FD
:1017900028461946FFF73AFD00283FF47AAF9EE746
:1017A000B1283CD0B22800F0B080B3284AD000F075
:1017B000FC03B42B93D0012300F007021A442846FF
:1017C000194642F40022FFF721FD00283FF461AFE3
:1017D00085E7C6284FD0C72861D000F0F803C02B9A
:1017E00070D0C8287CD0C9287FF479AF3046FFF785
:1017F0001DFF0523024601212846140302F00F02B3
:1018000004F470240A442243FFF700FD00283FF44B
:1018100040AF64E7B8F1000F1CD0002060E730460D
:10182000FFF704FF024600283FF459AF10F0F00321
:101830007FF455AF19462846FFF7E8FC00283FF42F
:1018400028AF4CE73046FFF7F1FE01230246194668
:101850002846D2E703AC43460E2241462846009470
:10186000FFF7F0FA43460F22284641460094FFF75F
:101870000FFB404634E73046FFF7D8FE024603230D
:10188000140302F00F0204F47024013228461946B2
:101890002243FFF7BBFC00283FF4FBAE1FE73046B6
:1018A000FFF7C4FE024600283FF419AF10F0F00322
:1018B0007FF415AF04212846FFF7A8FC00283FF469
:1018C000E8AE0CE7032300F00F0201322846194668
:1018D00042F42022FFF79AFC00283FF4DAAEFEE63D
:1018E0003046FFF7A3FE0246012102F0F00402F0A9
:1018F0000F0210340A440523284642EA0432FFF757
:1019000085FC00283FF4C5AEE9E600230DF10C0983
:101910000D2219462846CDF80090FFF793FA30467D
:10192000FFF784FE02064FF002040CD5039B00F083
:101930007F00A040184403903046FFF777FE03066F
:1019400004F10704F2D4039B00F07F02A24003F5E8
:1019500001731A440023039228460D221946CDF83C
:101960000090FFF795FA94E60B464FF0030C00B594
:10197000C26C1846536885B00832029201A91A0E4B
:101980001B028DF80CC001938DF80D20FFF77AFE35
:1019900005B05DF804FB00BF08B5FFF771FE806C71
:1019A00008BD00BF08B5FFF76BFEC06CC3790233FA
:1019B00000EB830008BD00BFFEE7FEE7FEE7FEE7A1
:1019C000FEE770477047704708B500F0B5F908BDED
:1019D00082B00E4B9A6942F001029A619A6902F054
:1019E00001020092009ADA6942F08052DA61DB6902
:1019F00003F080530193019B054A536823F0E06391
:101A000043F00073536002B0704700BF0010024003
:101A10000000014010B586B00023029303930493A5
:101A200005930268174B9A4201D006B010BD03F52A
:101A300058439A6942F480429A619A6902F480425A
:101A40000092009A9A6942F004029A619B6903F03D
:101A500004030193019B4FF4007302930223039349
:101A600003230593084C02A9204600F0BDFC4FF467
:101A70008063029300230393049302A9204600F09D
:101A8000B3FCD2E7003801400008014010B504461D
:101A90000268136923F44053C1680B4313618368E0
:101AA0000269134342691A430168CB6823F4B053B7
:101AB00023F00C031343CB600268536923F4407393
:101AC00081690B4353610268134B9A4220D000F0A6
:101AD0006BFC024602EB820202EB820263689B000F
:101AE000B2FBF3F20D48A0FB02314909642303FB6A
:101AF00011231B013233A0FB03235B0903F0F00227
:101B000002EB011203F00F03216813448B6010BD38
:101B100000F05AFC0246DDE7003801401F85EB511A
:101B20002DE9F84305460F4616469946DDF8208014
:101B300006E04FF0010C664527D1B8F1FF3F07D111
:101B40002C68246837EA0403F3D04FF0000CF2E766
:101B5000B8F1000F05D000F0FBF8A0EB09004045FC
:101B6000EED92A68D36823F4D073D3602A68536906
:101B700023F001035361202385F83D3085F83E3082
:101B8000002385F83C30032000E00020BDE8F88306
:101B900058B310B5044690F83D300BB3242384F8B5
:101BA0003D302268D36823F40053D3602046FFF70A
:101BB0006DFF2268136923F490431361226853690F
:101BC00023F02A0353612268D36843F40053D3609F
:101BD00000202064202384F83D3084F83E3010BD7E
:101BE00080F83C30FFF716FFD8E7012070472DE959
:101BF000F04182B01E4690F83D30DBB2202B54D12C
:101C000004460D469046002953D0002A53D090F840
:101C10003C30012B51D0012380F83C300023036479
:101C2000212380F83D3000F093F80746A4F8248083
:101C3000A4F82680A368B3F5805F05D04FF00008B4
:101C4000002384F83C3012E0236913B14FF0000800
:101C5000F6E7A8460025F3E738F8023B2268C3F30D
:101C600008035360E28C92B2013A92B2E284E38CB0
:101C70009BB273B100963B46002280212046FFF7BD
:101C80004FFFE0B9002DE7D015F8012B23685A600B
:101C9000E8E700963B46002240212046FFF740FF40
:101CA00078B9202384F83D3000E0022002B0BDE87E
:101CB000F0810120FAE70120F8E70220F6E703208F
:101CC000F4E70320F2E7000010B504460E4B187845
:101CD0004FF47A73B3FBF0F30C4A1068B0FBF3F0E7
:101CE00000F0F0FC68B90F2C01D901200AE00022B5
:101CF00021464FF0FF3000F0ADFC054B1C6000208A
:101D000000E0012010BD00BF040000200C000020F6
:101D10000800002008B5074A136843F01003136059
:101D2000032000F085FC0F20FFF7CEFFFFF750FEE9
:101D3000002008BD00200240034B1B78034A1168B5
:101D40000B441360704700BF040000200402002011
:101D5000014B1868704700BF0402002038B50446E4
:101D6000FFF7F6FF0546B4F1FF3F02D0044B1B78A6
:101D70001C44FFF7EDFF401BA042FAD338BD00BF63
:101D80000400002082B0084B1B68084AA2FB032312
:101D90005B0A00FB03F3019300BF019B5A1E0192F3
:101DA000002BF9D102B070470C000020D34D621017
:101DB000002800F0ED8170B582B00446036813F08E
:101DC000010F2CD0994B5B6803F00C03042B1DD042
:101DD000964B5B6803F00C03082B12D06368B3F5D5
:101DE000803F41D0002B55D103F1804303F50433EC
:101DF0001A6822F480321A601A6822F480221A606B
:101E000037E08A4B5B6813F4803FE7D0874B1B6851
:101E100013F4003F03D06368002B00F0BB812368FC
:101E200013F0020F75D0814B5B6813F00C0F5FD07D
:101E30007E4B5B6803F00C03082B54D02369002B06
:101E400040F081807A4B00221A60FFF781FF05463F
:101E5000764B1B6813F0020F5BD0FFF779FF401B36
:101E60000228F5D903209AE1704A136843F48033BD
:101E70001360636843B3FFF76BFF05466B4B1B684A
:101E800013F4003FCBD1FFF763FF401B6428F5D963
:101E9000032084E1B3F5A02F09D0644B1A6822F423
:101EA00080321A601A6822F480221A60E1E703F196
:101EB0008043A3F53C331A6842F480221A601A6802
:101EC00042F480321A60D4E7FFF742FF0546574BD1
:101ED0001B6813F4003FA2D0FFF73AFF401B6428B1
:101EE000F5D903205BE1514B5B6813F4803FA5D12A
:101EF0004E4B1B6813F0020F03D02369012B40F0F7
:101F00004B814A4A136823F0F803616943EAC1032D
:101F10001360236813F0080F33D0A369002B5CD043
:101F2000434B0122C3F88024FFF712FF05463F4BC5
:101F30005B6A13F0020F21D1FFF70AFF401B022852
:101F4000F5D903202BE13A4B01221A60FFF700FF7D
:101F50000546364B1B6813F0020F06D1FFF7F8FE5B
:101F6000401B0228F5D9032019E1304A136823F0F9
:101F7000F803616943EAC1031360CAE70120FFF770
:101F800001FF236813F0040F00F09680274BDB69F4
:101F900013F0805F34D1254BDA6942F08052DA6168
:101FA000DB6903F080530193019B0125214B1B68E2
:101FB00013F4807F26D0E368012B3DD0002B53D152
:101FC00003F1804303F504331A6A22F001021A6216
:101FD0001A6A22F004021A6233E0154B0022C3F899
:101FE0008024FFF7B5FE0546104B5B6A13F0020F25
:101FF000C7D0FFF7ADFE401B0228F5D90320CEE085
:102000000025D3E70B4A136843F480731360FFF78E
:102010009FFE0646074B1B6813F4807FCBD1FFF76A
:1020200097FE801B6428F5D90320B8E00010024019
:1020300000004242007000405F4A136A43F001030F
:102040001362E36833B3FFF783FE06465A4B1B6AFD
:1020500013F0020F2FD1FFF77BFE801B41F2883374
:102060009842F3D903209AE0052B09D0524B1A6A03
:1020700022F001021A621A6A22F004021A62E0E7F0
:102080004D4B1A6A42F004021A621A6A42F00102C7
:102090001A62D6E7FFF75CFE0646474B1B6A13F051
:1020A000020F08D0FFF754FE801B41F2883398429C
:1020B000F3D9032073E0E5B9E369002B6ED03E4A03
:1020C000526802F00C02082A52D0022B17D03B4B68
:1020D00000221A66FFF73CFE0446374B1B6813F0DC
:1020E000007F60D0FFF734FE001B0228F5D90320E3
:1020F00055E0314AD36923F08053D361DCE72F4B9D
:1021000000221A66FFF724FE05462B4B1B6813F0CE
:10211000007F06D0FFF71CFE401B0228F5D90320E4
:102120003DE0236AB3F5803F1AD023494B6823F47E
:102130007413226A606A024313434B601F4B0122EF
:102140001A66FFF705FE04461B4B1B6813F0007F61
:1021500027D1FFF7FDFD001B0228F5D903201EE063
:10216000154A536823F40033A1680B435360DCE73E
:10217000012B1AD0104B5B6803F48031226A914224
:1021800015D103F47013626A934212D1002006E065
:1021900001207047012002E0012000E0002002B091
:1021A00070BD0020FBE70020F9E70120F7E70120E0
:1021B000F5E70120F3E700BF0010024000004242B3
:1021C00086B0174B0FCB0DF1180C0CE90F0040F245
:1021D0000123ADF80430134B5B6803F00C02082AAE
:1021E00002D0114806B07047C3F3834218326A44E4
:1021F00012F8100C13F4803F0DD00A4B5B68C3F348
:10220000404318336B4413F8143C074A02FB00F0B8
:10221000B0FBF3F0E6E7054B03FB00F0E2E700BF9D
:10222000D86F00080010024000127A0000093D003B
:10223000002800F0A08070B50D460446524B1B6884
:1022400003F007038B420BD24F4A136823F00703B6
:102250000B431360136803F007038B4240F08D803B
:10226000236813F0020F17D013F0040F04D0474A6D
:10227000536843F4E0635360236813F0080F04D0FD
:10228000424A536843F460535360404A536823F012
:10229000F003A1680B435360236813F0010F31D0A2
:1022A0006368012B20D0022B25D0384A126812F027
:1022B000020F64D035494A6822F0030213434B6091
:1022C000FFF746FD0646314B5B6803F00C0362687E
:1022D000B3EB820F16D0FFF73BFD801B41F2883332
:1022E0009842F0D9032045E0284A126812F4003FD2
:1022F000E0D101203EE0254A126812F0007FD9D1DA
:10230000012037E0204B1B6803F00703AB420AD9DA
:102310001D4A136823F007032B431360136803F06F
:102320000703AB422DD1236813F0040F06D0174AE0
:10233000536823F4E063E1680B435360236813F0B0
:10234000080F07D0114A536823F46053216943EA08
:10235000C1035360FFF734FF0C4B5B68C3F30313F7
:102360000B4AD35CD8400B4B18600B4B1868FFF737
:10237000ABFC002070BD012070470120FAE701206E
:10238000F8E70120F6E700BF0020024000100240FD
:10239000EC6F00080C00002008000020014B1868BA
:1023A000704700BF0C00002008B5FFF7F7FF044B93
:1023B0005B68C3F30223034AD35CD84008BD00BF67
:1023C00000100240FC6F000808B5FFF7E7FF044B60
:1023D0005B68C3F3C223034AD35CD84008BD00BF87
:1023E00000100240FC6F000870B582B00024A446C3
:1023F000A7E0814DAA4210D007D9804DAA420CD047
:1024000005F58035AA4208D013E0A5F58015AA424B
:1024100003D005F57025AA4207D18A68002A58D052
:10242000012A51D04361082403E0A5F58015AA4292
:10243000F3D0BEF1FF0F4ED80646BEF1FF0F4CD8C9
:102440004FEA8C0233680F25954023EA050304FA0E
:1024500002F2134333604B6813F0805F6FD0684B18
:102460009A6942F001029A619B6903F001030193AA
:10247000019B4FEA9C02951C624B53F825300CF0EF
:102480000305AD000F26AE4023EA06035E4EB042C0
:1024900029D006F58066B04200F0908006F580668F
:1024A000B04200F08D8006F58066B04219D0042657
:1024B0001AE0CC68BDE7CC680434BAE7CC680834CD
:1024C000B7E7CC680C34B4E703610824B1E7002413
:1024D000AFE70424ADE7061DAFE7ACF108029200B8
:1024E000B0E7032600E0002606FA05F52B4302328A
:1024F000444D45F822304B6813F4803F62D0434A84
:10250000136843EA0E0313604B6813F4003F5FD077
:102510003E4A536843EA0E0353604B6813F4801F2E
:102520005CD03A4A936843EA0E0393604B6813F415
:10253000001F59D0354AD36843EA0E03D3600CF12B
:10254000010C0A6832FA0CF354D0012303FA0CF39D
:1025500002EA030E33EA0202F1D14A68122A3FF678
:1025600048AF122A3FF665AF01A555F822F000BF2B
:102570001B240008B3240008BD240008CF24000851
:1025800033240008332400083324000833240008CF
:1025900033240008332400083324000833240008BF
:1025A00033240008332400083324000833240008AF
:1025B00033240008B7240008C3240008012693E749
:1025C000022691E7114A136823EA0E0313609BE782
:1025D0000E4A536823EA0E0353609EE70B4A936842
:1025E00023EA0E039360A1E7084AD36823EA0E03A7
:1025F000D360A4E702B070BD0000221000003110CB
:1026000000100240000001400008014000040140A9
:102610000AB101617047090401617047C36801EAAA
:10262000030221EA030141EA02410161704700000F
:10263000074AD36823F4E0631B041B0C000200F478
:10264000E060034343F0BF6343F40033D36070475B
:1026500000ED00E000B5194BDB68C3F30223C3F1C2
:10266000070CBCF1040F28BF4FF0040C03F1040E5B
:10267000BEF1060F18D9033B4FF0FF3E0EFA0CFCDB
:1026800021EA0C0199400EFA03F322EA03031943ED
:1026900000280BDB0901C9B200F1604000F5614080
:1026A00080F800135DF804FB0023E5E700F00F005D
:1026B0000901C9B2024B1954F4E700BF00ED00E074
:1026C00014ED00E00138B0F1807F0BD24FF0E02331
:1026D0005861054AF02182F82310002098610722F2
:1026E0001A6170470120704700ED00E0704700005C
:1026F0000C480D490D4A002302E0D458C45004335D
:10270000C4188C42F9D30A4A0A4C002301E0136032
:102710000432A242FBD3FFF7E9FF01F0CBFC00F04B
:102720008DFA704700000020E8010020187F0008A3
:10273000E801002004040020FEE700228270C0F8B7
:1027400008210270C0F80421427070470022827094
:10275000C0F888200270C0F88420427070470000E2
:1027600038B504460D464FF400510548FFF756FFB3
:102770004FF4FA732A4621460248FFF738FA38BD6B
:1027800000100140A003002038B504460D464FF468
:1027900000510548FFF742FF4FF4FA732A462146DD
:1027A0000248FFF724FA38BD00100140A0030020C2
:1027B00030B589B000240494059406940794304BF6
:1027C0009A6942F010029A619A6902F0100200922E
:1027D000009A9A6942F020029A619A6902F02002F6
:1027E0000192019A9A6942F004029A619A6902F090
:1027F00004020292029A9A6942F008029A619B6965
:1028000003F008030393039B1E4D01224FF4005174
:102810002846FFF7FDFE4FF4005304930123059370
:1028200006940223079304A92846FFF7DDFD4FF421
:10283000404304930324059404A92846FFF7D4FDDC
:102840000494059404A91048FFF7CEFD49F6FF1340
:102850000493059404A90D48FFF7C6FD4FF6FF73D6
:102860000493059404A90A48FFF7BEFD094A53687A
:1028700043F0E06343F40043536009B030BD00BF50
:102880000010024000100140001401400008014007
:10289000000C014000000140012800D07047F8B54D
:1028A0004FF6FF73994200D0F8BD1C4D00242C70E8
:1028B0006C704FF480722146A81C01F02FFCC5F803
:1028C0000841174BC5F808311648C5F804012146E0
:1028D00000F03AFE687001272F70134E32461349FC
:1028E000284600F0DBFE124D2C706C7080222146D1
:1028F000A81C01F013FCC5F888400E4BC5F88830C1
:102900000D48C5F88400214600F01EFE68702F7047
:1029100032460A49284600F0C1FEC5E7940200206D
:102920006127000800750008000000203B27000810
:102930000802002089270008047000084D270008BD
:1029400072B6FEE708B50A480A4B03604FF4E1335C
:10295000436000238360C36003610C224261836192
:10296000C361FFF715F900B908BDFFF7E9FF00BF24
:10297000A00300200038014000B591B028220021BA
:1029800006A801F0CBFB0023019302930393049369
:1029900005930223069301230A9310230B9306A8A1
:1029A000FFF706FA68B90F23019300210291039102
:1029B0000491059101A8FFF73BFC20B911B05DF827
:1029C00004FBFFF7BDFFFFF7BBFF38B5037813F03B
:1029D000010F16D004460D46417899B900212846CA
:1029E00000F0B2FD0146237813F0020F05D013F07A
:1029F000040FFCD143F004032370D4F808312846B7
:102A0000984738BDD0F8040189B213F0020F05D001
:102A100013F0040FFCD143F004032370D4F8083101
:102A20009847DBE70EB470B583B00446037813F023
:102A3000010F1CD013F0040FFCD108AB0193A61CAE
:102A4000079A8021304602F02DF985B2617899B954
:102A5000237813F0020F05D013F0040FFCD143F0DC
:102A600004032370D4F8883029463046984703B0D1
:102A7000BDE8704003B07047D4F8840089B2237871
:102A800013F0020F05D013F0040FFCD143F0040340
:102A90002370D4F888309847DAE738B5037813F014
:102AA000010F16D004460D46417899B900212846F9
:102AB00000F04AFD0146237813F0020F05D013F011
:102AC000040FFCD143F004032370D4F88830284667
:102AD000984738BDD0F8840089B213F0020F05D0B2
:102AE00013F0040FFCD143F004032370D4F88830B2
:102AF0009847DBE70EB470B583B00446037813F053
:102B0000010F1DD013F0040FFCD108AB0193A61CDC
:102B1000079A4FF48071304602F0C4F885B26178AC
:102B200099B9237813F0020F05D013F0040FFCD1EC
:102B300043F004032370D4F80831294630469847FF
:102B400003B0BDE8704003B07047D4F8040189B207
:102B5000237813F0020F05D013F0040FFCD143F0DB
:102B600004032370D4F808319847DAE7401A9DF837
:102B700000C0ACEB030C0CFB00F0511A90FBF1F021
:102B8000C0B21844C0B2704770470028B8BF404276
:102B900040B27047034608468B4200D21846704741
:102BA000034608468B4200D9184670470346104634
:102BB0008B4203D2934204D218467047914200D20E
:102BC00008467047034610468B4203D9934204D906
:102BD00018467047914200D90846704702460020C7
:102BE000074BA3FB0213DB08194603EB8303A2EB9D
:102BF00043031844C0B213460A46092BF0D8704765
:102C0000CDCCCCCCB0F840C0B0F84620624512D054
:102C1000B0F84230C15401339BB2A0F842300132C7
:102C2000A0F84620634501D0012070470023A0F89A
:102C30004230012070470020704700002DE9F0412C
:102C4000E6B0FFF767F8FFF797FEFFF7B1FDFFF774
:102C500079FEC349C348FFF7B8FEC34B1B7813F096
:102C6000010F16D0C04B5978002940F04181BE4B6E
:102C70001B7813F0020F06D013F0040FFCD143F0C1
:102C80000403B94A1370B84BD3F888302521B748EC
:102C90009847B44B1B7813F0010200D00122B24CCC
:102CA000B3492046FFF7BEFE237823F001032370CB
:102CB000B0492046FFF7F1FE237843F0010323706B
:102CC000AD492046FFF7E9FEA64C0622AB49204657
:102CD000FFF710FF0522AA492046FFF70BFF7D23CF
:102CE0003222A8492046FFF705FF0A25009540F249
:102CF000B2234FF4FA72A4492046FFF7FBFE2B469D
:102D00000522A2492046FFF7F5FE64230522A049CB
:102D10002046FFF7EFFE002301229E492046FFF7E1
:102D2000E9FE02230093002320229B492046FFF75F
:102D3000E1FE422299492046FFF7DCFEC222984973
:102D40002046FFF7D7FEC62296492046FFF7D2FE5F
:102D5000642500950023FF2219468420FFF706FF13
:102D60000346842290492046FFF7C4FE4FF4D270F8
:102D7000FFF70AFF06466FF04400FFF706FF034621
:102D800032468A492046FFF7B5FE4FF4FA712846CD
:102D9000FFF700FF06464FF4FA712846FFF700FFE1
:102DA0000346324682492046FFF7A4FE4FF47A726A
:102DB00032212846FFF7FAFE06464FF47A72322196
:102DC0002846FFF7FFFE034632467A492046FFF7C2
:102DD00091FE7948FFF702FF024678492046FFF747
:102DE00089FE774B62AD0FCB07C52B70754B93E80F
:102DF00003006090ADF88411734B93E803005E907C
:102E0000ADF87C11090C8DF87E1162AD00212846C9
:102E100000F09AFB06462021284600F095FB034669
:102E200032466A492046FFF765FE00226C2128469B
:102E300000F093FB064620226C21284600F08DFB13
:102E40000346324662492046FFF754FE20212846B9
:102E500000F067FB074603462A465E492046FFF717
:102E600049FE60AE00223146284600F084FB8046D1
:102E700000223946284600F07EFB03900297019518
:102E8000CDF8008033462A4653492046FFF732FEEC
:102E90005EAD00222946304600F06DFB07466C22ED
:102EA0002946304600F067FB039002950196009793
:102EB0002B46324649492046FFF71CFE484E59AD85
:102EC000B446BCE80F000FC5DCF800302B6056ADEF
:102ED00006F1140393E8070085E8070059AB549303
:102EE0000523ADF854313F492046FFF76EFD12E04F
:102EF000D3F8840089B21B7813F0020F06D013F0C8
:102F0000040FFCD143F00403174A1370164BD3F897
:102F100088309847ABE6002401E00134E4B2042C89
:102F200007D859AB53F824202F490E48FFF7E2FD8C
:102F3000F3E756AB54930323ADF854312B490948BA
:102F4000FFF743FD002401E00134E4B2022C4FD826
:102F500056AB53F8242024490248FFF7CBFDF3E792
:102F6000107000089402002008020020347000084D
:102F70005C7000087470000890700008B870000859
:102F8000D0700008E8700008207100084471000843
:102F90006871000894710008AC710008D0710008D5
:102FA000F4710008187200083C720008847200086E
:102FB0009C720008C47200084E61BC00F8720008E0
:102FC000D0760008E0760008E87600082473000850
:102FD00070730008B4730008C8730008EC7300082D
:102FE000B86F0008207400084C7400085074000882
:102FF0009F4B1B7813F0010F28D09D4B597891B946
:103000009B4B1B7813F0020F06D013F0040FFCD17A
:1030100043F00403964A1370954BD3F8083101210D
:103020009448984712E0D3F8040189B21B7813F052
:10303000020F06D013F0040FFCD143F004038C4AB6
:1030400013708B4BD3F808319847D9E74CAC8A4DB5
:103050000FCD0FC495E80F0007C4238000224A92C9
:10306000ADF82C2102924AAB019300922D232C2122
:103070004CA800F093FA4A9A80497D48FFF73AFD40
:10308000012302934AAB0193002200922D232C21AD
:103090004CA800F083FA4A9A79497548FFF72AFD4F
:1030A00045AC784D0FCD0FC42B68238000233C9393
:1030B0003D933E932C228DF8F020ADF8F8303F93ED
:1030C000409341938DF8FC20ADF804314293439333
:1030D00044938DF80821ADF81031012200920322AB
:1030E0003CA945A800F09FFA09E045AB3CAA9342F1
:1030F00000F0DA810C3B00225A601A81F6E7439B0C
:103100000093409B3D9A60495948FFF7F3FC01E06A
:1031100045ABEBE70123009303223CA945A800F04F
:1031200082FA01E045ABE1E7439B0093409B3D9A67
:1031300056494F48FFF7DEFC01E045ABD6E734AC1B
:10314000534D0FCD0FC495E80F0007C423802C22E8
:103150008DF8B82001218DF8B9108DF8BA20002320
:103160008DF8BB302F93ADF8C0308DF8C4308DF89A
:10317000C5308DF8C6208DF8C7103293ADF8CC302D
:10318000009302222EA934A800F04DFA09E034ABD6
:103190002EAA934200F086810C3B00225A601A81CD
:1031A000F6E73C493248FFF710FC01E034ABEFE7AB
:1031B000002403E034ABEBE70134E4B2BDF8C030E7
:1031C0009C4206DA2F9B1A5D33492948FFF792FC8F
:1031D000F2E732492648FFF7F8FB01E034ABD7E7C6
:1031E000002403E034ABD3E70134E4B2BDF8CC30C3
:1031F0009C4206DA329B1A5D27491D48FFF77AFC8C
:10320000F2E727491A48FFF7E0FB01E034ABBFE7DC
:103210004023ADF8B0300024ADF8B240ADF8B44072
:10322000ADF8B64019AD1F4A07CA85E807001194EA
:10323000129413941494159416941794189400945B
:103240001A4619490A48FFF755FC48211CA8FFF700
:10325000D9FCBDF8B0C0BDF8B630ACEB030C1FFA1A
:103260008CFCBCF10A0F01D94FF00B0C00221FE0BF
:103270009402002030700008F07600087C7400088A
:10328000A874000810770008C874000804750008C6
:10329000247700083C750008687500086C75000804
:1032A000A47400084477000874750008013292B2D3
:1032B00062451AD219AB13F802E0BDF8B040BDF870
:1032C000B6108C42F2D01CA8BDF8B23000F803E072
:1032D00001339BB2ADF8B2300131ADF8B6109C426B
:1032E000E4D10023ADF8B230E0E7BDF8B020BDF87E
:1032F000B630D21A92B272497248FFF7FBFBBDF8A2
:10330000B630A3B11CAABDF8B430D35C8DF84430FC
:10331000BDF8B43001339BB2ADF8B430BDF8B6108F
:103320000139ADF8B610BDF8B020934205D011AA0E
:1033300065496448FFF7DEFB03E00023ADF8B430D5
:10334000F5E7BDF8B6401F2C00D92024002101E08C
:10335000013189B2A14219D21CAABDF8B430D05CA7
:103360000DF145035854BDF8B43001339BB2ADF8AC
:10337000B430BDF8B6000138ADF8B600BDF8B020E5
:103380009342E5D10023ADF8B430E1E711AA4F49EB
:103390004C48FFF7AFFBBDF8B020BDF8B6309A42FD
:1033A00004D04B494748FFF710FB03E04949454823
:1033B000FFF70BFB0021ADF8B210ADF8B410ADF87B
:1033C000B610BDF8B0201CA800F0A8FE42493D4848
:1033D000FFF7FBFA414B0DAC0FCB07C42380FEF780
:1033E000B7FC0546002401E00134A4B2B4F57A7FAD
:1033F00004D200210DA800F0A7F8F5E7FEF7A8FC1D
:10340000421B37492F48FFF775FBFEF7A1FC054625
:10341000002401E00134A4B2B4F57A7F05D2002281
:103420000DA9084600F0A7F8F4E7FEF791FC421B4F
:103430002C492448FFF75EFB05AC2B4D0FCD0FC484
:1034400095E80F0007C42380FEF782FC05460024A0
:1034500001E00134A4B2B4F57A7F0AD200220292CC
:103460004AAB019300922D232C2105A800F096F879
:10347000EFE7FEF76DFC421B1C491248FFF73AFBD1
:103480004FF400511A48FFF7C9F8FA20FEF766FC1E
:10349000F6E70023ADF8B230ADF8B430ADF8B63091
:1034A00034AB75E645AB21E600234A93ADF82C31E9
:1034B00000235493ADF8543100F0F5F8F8E700BF5D
:1034C000C8750008940200201076000828760008CD
:1034D0005C7600084476000878760008507700088B
:1034E00090760008A4760008F0760008B876000808
:1034F0000010014008B54FF6FF710120FFF7CCF92D
:1035000008BD10B400E0013004782CB18C42FAD12F
:103510001AB1013AD2B2F6E70BB910BC70470020DD
:10352000FBE7034600E001331A780AB18A42FAD178
:1035300042B11846002200F8012B5B7803B17047B6
:10354000104670470020FAE7034600E001331A787E
:103550008A42FBD1181A80B270470346002000E06F
:10356000013393F800C0944504D08C45F8D1013064
:1035700080B2F5E7704701E00130013103789342F2
:1035800005D091F800C06345F6D0002070470A7856
:10359000934201D101207047002070472DE9F04788
:1035A00004469DF82090099F9DF82880007838B146
:1035B0000D461E4641B96CB1607878B9BDE8F08718
:1035C00000233B60BB80F9E701232046FFF799FF0A
:1035D0000446F0E700203860B880EFE704F1010A04
:1035E0009DB100234A4631465046FFF78AFFA0EBC3
:1035F0000A00C7F800A0B880B8F1000F03D03A68FD
:10360000BB880021D1540120D8E700234A46314627
:103610005046FFF776FFA0EB0A0A0AF1010A3C6068
:10362000A7F804A0E8E72DE9F04F85B007460E465D
:1036300092469B469DF838800024A1461AE000215E
:1036400004EB440306EB83052A1DCDF808B0019274
:103650006A78009216F82330EA783846FFF79EFF22
:10366000012812D0B8F1000F02D02B8901331F447A
:103670000134E4B254450DD2B8F1000FDFD104EBB0
:10368000440306EB83039978DAE709F101095FFA4D
:1036900089F9E7E7484605B0BDE8F08F0B460146DB
:1036A000184600F0F9BC1EB400F09BF81EBCFDF7F4
:1036B00075FF0378472B17D143784E2B14D18378AD
:1036C000552B11D1C378432B0ED10379432B0BD14A
:1036D00043792B2B08D183792B2B05D1C079012875
:1036E0008CBF002001207047002070472DE9F34176
:1036F0001D4603780E46472B0246C17913D1437805
:103700004E2B10D18378552B0DD1C378432B0AD182
:103710000379462B07D143794F2B04D18379522B60
:1037200001D1002930D01046FFF7C3FF002380F0FD
:103730000104E4B2002001904BBB54BB01290ABF35
:1037400052F8203CA2F12003783B01290CBF52F82B
:10375000202C58321C680192236820469B689847A9
:10376000C8B10227019B1B68019333682146D3F837
:1037700010803046012301AAC04770B1019B2B6025
:10378000384602B0BDE8F08101230C46D2E7044C74
:10379000E2E7044CE0E70127E7E70746F0E700BF70
:1037A000607700086877000810B5044600F032F82A
:1037B00002462046A4F12001FFF77BFF60B154F8D8
:1037C000043C0133012B44F8043C03D1936844F8D2
:1037D000083C9160012010BD9368002BF9D000F0E7
:1037E000A3FA10B500F016F8826801460AB900F095
:1037F0009BFA02F120042046FFF75BFF40B1D3693A
:10380000013BD36113B9906988609361204610BD74
:103810008860FBE700487047E403002000231A4655
:1038200030B510F8015B05F07F04944023432C066B
:1038300002F10702F5D40B6030BD00231A4630B503
:1038400010F8014B04F07F0595402B43250602F14B
:103850000702F5D41F2A06D8640642BF4FF0FF3492
:1038600004FA02F213430B6030BD50282DE9F341F6
:103870000646884615461F4608D1D01C20F0030096
:1038800050F8044B3C6002B0BDE8F08100F00F033B
:103890000C2B2ED8DFE803F025071D25292D2D2D13
:1038A0002D1821252900284601A9FFF7B7FF019C03
:1038B000002CE7D006F07003102B08BFA846330693
:1038C000444448BF2468DDE7284601A9FFF7B5FF57
:1038D000EDE7284630F8024BEAE7284630F9024B7C
:1038E000E6E7284650F8044BE2E7284650F8084B34
:1038F000DEE700F0C9FB08B50346FF2B084610D0F1
:1039000003F07002302A12D007D8202A0BD002D838
:1039100013F0600F05D000F0B7FB402A0BD0502AFF
:10392000F9D1002008BDBDE8084003F0E4BABDE8C5
:10393000084003F0DDBABDE80840FEF72DB870B5C9
:103940000C460146204615461E46FFF7D4FF334677
:1039500001462A462046BDE87040FFF786BF73B592
:103960000C461546064628B3FEF716F803462046D1
:103970002B6010F8011BFF291ED002462B1D30467C
:10398000FFF7DDFF10F8013BFF2B2B7516D010233E
:1039900001A92B75FFF742FF019B0344EB6010F870
:1039A000013B01A96B75FFF739FF019B03442B61B4
:1039B00002B070BD0346DAE76B60E3E70023EDE792
:1039C0001FB503AB009300230A461946FDF73AFAE8
:1039D000039805B05DF804FB00232DE9F04F91B08A
:1039E000059300F00303012B06460C4617460ED044
:1039F000022B03D0002B3BD101073BD53946204693
:103A0000FDF7B2FF90B3092011B0BDE8F08F0207B7
:103A100006D40D6A38460D21FFF7D2FF85422BD020
:103A20000220002306F008060DF1280A06430C22A6
:103A300019463846CDF800A00A94FDF729FA062E5B
:103A40001CD1D4E90A59D4F83080B8F1000F0CBF6A
:103A50004FF0010B4FF0030B16F0080600F0078142
:103A6000BBF1010F40F0FF8000F05EF90820CBE7CA
:103A700000F00AFB0120D4E70620D2E73846FDF724
:103A800091FF81460028B9D0524601463846FFF7DB
:103A900066FF394605469DF83C00FFF72CFF0F21D5
:103AA0000C903846FFF78CFF20F0010808F1FF3832
:103AB0000E9BAB4240F2BF802A469DF83D1006ABFC
:103AC0000020FFF73CFF9DF83D10024607AB0020A9
:103AD000FFF735FF08AB02469DF83D100020FFF7C9
:103AE0002EFF09A9FFF79AFE0A9B069A0546134482
:103AF000434501D90E9DDBE7079A13444345D7D9C7
:103B0000DDF82080B8F1000F01D00B9B9844099D8F
:103B100015B10E98013D0544B8F1000F3FF46EAFAA
:103B2000002D00F0F28016F00803029334D04723F2
:103B300023704E2363705523A3704323E370462301
:103B400023714F2363715223A3710023E3714FF05C
:103B5000000B07A92846FFF770FE08A90390FFF79E
:103B60006CFE0799002963D03ADD9DF83C00FF28E0
:103B700032D000F00703042B3FF67AAF01A252F8CF
:103B800023F000BFDD3B0008713A0008AB3B0008A2
:103B9000DD3B0008D53B0008E379012B0CBF54F84E
:103BA000203C04F158030593D1E702250D9A09AB97
:103BB00005FB11220C99FFF758FE099931B15CB34E
:103BC0000022204605ABFFF791FD28B34FF0030B11
:103BD000079D34E00825E9E70025E7E70425E5E748
:103BE000C1F17F5101F57F110D9B01F57F513F31EF
:103BF00003EB8105BCB1029AAAB9059B043D099368
:103C000055F8041F0029E1D00022204609AB2944C1
:103C1000FFF76CFD0028F3D0089D002D71D0039BA9
:103C20002B441D4695E753F82130002BF4D1CDE706
:103C30004FF0010BF0E700254FF0010BA846F3070A
:103C40007FF50AAFBBF1020F3FF4D8AE0D21384625
:103C5000059EFFF7B5FEC4E90A59C4E90806C4F891
:103C600030800620D0E6002D22DA00F06FF8BBF19C
:103C7000010F02D1204600F09CF9002D18DA5246BF
:103C800049463846FFF76BFE39469DF83C00FFF782
:103C900032FEEB430D9A0C9002EB830353F826207F
:103CA0000AB10136FAE70422C4E90A60C4E90C2328
:103CB000002309AE1A461946384600960994FDF7C6
:103CC000E7F8002301221946384600960995FDF7CA
:103CD000DFF80F213846FFF773FE002300F00100E4
:103CE00040EA080009900F22194638460096FDF771
:103CF000CFF8BBF1020F02D12046FFF755FD072098
:103D000082E6BBF1000F3FF479AE4FF0020B96E76D
:103D100008B5804700F0B8F9024B1868BFF35B8F15
:103D2000704700BF1400002008B5FFF7F5FFFFF74C
:103D3000EFFF08B58047FFF7F7FF0000024B186858
:103D4000BFF35B8F704700BF1000002008B5FFF77E
:103D5000F5FFFFF7EEFF000010B50446024B0360CD
:103D600000F0B4F8204610BDF077000810B5044606
:103D7000FFF7F2FF20460C2100F0FCF8204610BDB2
:103D80002DE9F041DDF81880064690450F461546AE
:103D90001C460BD0B0682A460368CDF818801E6A0E
:103DA00039462346B446BDE8F0416047194600F065
:103DB00057F80028EED00620BDE8F0812DE9F14F3C
:103DC0000D46DDE90A4BDDE90CA61946814617468A
:103DD000984600F045F890B1002D3460377109DB4A
:103DE0002C44A2450CBF06240124B471002001B06C
:103DF000BDE8F08F0235F9D10123B371F6E75445E0
:103E000006D15946484600F02BF808B17771EDE726
:103E1000D9F808003A460368CDE90CA6CDE90A4B6B
:103E2000DC6929464346A44601B0BDE8F04F60472F
:103E30002DE9F04107460C4615461E4600F079F87C
:103E400048B9B8682A46036821469F693346BC468C
:103E5000BDE8F0416047BDE8F08170470020704741
:103E6000814208B50ED0406803782A2B0CD04968EF
:103E70000B782A2B08BF0131FCF76AF9B0FA80F001
:103E8000400908BD0120FCE70020FAE77FB50024C7
:103E90001023CDE90234036815469E69CDE900443C
:103EA0006B461268B0479DF8043003F00603062BFA
:103EB00009BF01202046009B2B6004B070BD009814
:103EC000904214BF012006207047000010B5044640
:103ED000024B0360FFF7C1FF204610BD6478000865
:103EE00010B50446FFF7F2FF2046082100F042F823
:103EF000204610BD2DE9F041DDF818801F46DDE9B0
:103F0000083498450646154607D10799FFF7A8FFDC
:103F100018B165710020BDE8F08139463046FFF7E1
:103F20009FFF0028F6D00123C4F800802571A371FB
:103F3000F0E738B515461C46FFF792FF20B108237D
:103F4000E36006232560237138BD2DE9F041054665
:103F50000C4616461F46FFF783FF48B9032F07D8C4
:103F60002368324629462046BDE8F0415B69184780
:103F7000BDE8F08100F086B80378472B17D143786D
:103F80004E2B14D18378552B11D1C378432B0ED1EE
:103F90000379432B0BD143792B2B08D183792B2B1E
:103FA00005D1C07901288CBF002001207047002076
:103FB000704710B5044648B100F03BF82046FFF7C3
:103FC000DBFF18B154F8140CFFF7A2FEFFF7ACFEAC
:103FD00038B50246FFF7D0FF044640B1002552F83D
:103FE000184C104600F025F81DB1FFF7AFFE012573
:103FF000F7E72046FFF79DFE0378472B17D143785C
:104000004E2B14D18378552B11D1C378432B0ED16D
:104010000379432B0BD143792B2B08D183792B2B9D
:1040200005D1C07901288CBF0020012070470020F5
:10403000704738B50446FFF7EDFB02460568204699
:10404000A4F12001FFF7D8FF28B90DB1FFF76CFEEE
:104050001160284638BD54F80C3C2046002BB4BFF4
:10406000C3F10103013344F80C3C53688D4203F162
:10407000FF3353601CBF44F8105C1160656AFCF7A5
:10408000D9FEE6E700F042B8062008B500F0C2FD10
:10409000012002F081FF000010B5044604481346D9
:1040A00020B10A4602202146AFF3008010BD00BFB8
:1040B0000000000070B500260C4D0D4C641BA410D0
:1040C000A64209D102F06AFF00260A4D0A4C641B81
:1040D000A410A64205D170BD55F8043B984701369F
:1040E000EEE755F8043B98470136F2E70C7F0008ED
:1040F0000C7F00080C7F0008147F0008024B01466B
:10410000186800F07BB800BF18000020024B014681
:10411000186800F00BB800BF1800002003460244E6
:10412000934200D1704703F8011BF9E738B5054603
:10413000002940D051F8043C0C1F002BB8BFE418F4
:1041400001F058FC1C4A136833B9636014602846B8
:10415000BDE8384001F054BCA34208D920682118BA
:104160008B4201BF19685B6809182160EDE71A46A8
:104170005B680BB1A342FAD911685018A0420BD169
:1041800020680144501883421160E0D118685B68D0
:10419000014411605360DAE702D90C232B60D6E7A3
:1041A000206821188B4201BF19685B6809182160DB
:1041B00063605460CBE738BDF003002070B50E4E4D
:1041C0000C463168054611B900F0ECFC3060214620
:1041D000284600F0E7FC431C0AD0C41C24F003046A
:1041E000A04207D0211A284600F0DCFC013001D1A2
:1041F0004FF0FF34204670BDF40300202DE9F0415C
:10420000CD1C25F0030508350C2D38BF0C25002DDD
:10421000074601DBA94205D90C2300263B60304646
:10422000BDE8F0812E4E01F0E5FB33681C4634BB3F
:1042300029463846FFF7C2FF431C04464DD1346877
:104240002646002E40D123683146384604EB030849
:1042500000F0A8FC80453AD1216803356D1A25F09D
:10426000030508350C2D38BF0C2538462946FFF7C5
:10427000A5FF01302BD023682B4423600EE0226879
:10428000521B1ED40B2A16D96119A342256018BFF0
:104290005960636808BF316062514B60384604F171
:1042A0000B0601F0ADFB26F00706231DF21AB6D06F
:1042B0009B1BA350B3E76268A3420CBF32605A60F5
:1042C000ECE723466468B2E734467668B9E70C2326
:1042D00038463B6001F094FBA1E72560DEE700BFB4
:1042E000F0030020002B2DE9F0471F46BBBF03F170
:1042F00000431F4600232D2388B01446129A109DB8
:104300001370149BDDF84CA023F02008B8F1460F81
:1043100005D0B8F1450F00D10135022300E0032399
:1043200007AA049206AACDE902A2CDE900352246E9
:104330003B4600F051FDB8F1470F064602D1119BF4
:10434000DB0722D5B8F1460F06EB050910D133780B
:10435000302B0AD10022002320463946FCF72EFBE1
:1043600018B9C5F10105CAF80050DAF800309944CF
:104370000022002320463946FCF720FB08B1CDF887
:104380001C903022079B4B4507D33046079B159A5C
:104390009B1B136008B0BDE8F087591C07911A7089
:1043A000F0E70346F7B5002903F8022BB6BF2D222C
:1043B0002B224942092942702BDD0DF10704A44646
:1043C0000A2791FBF7F60A46A64607FB1615632A4D
:1043D00005F13005314604F1FF340EF8015CF0DCE4
:1043E0003031AEF1020504F8011C2946441C614538
:1043F0000AD30DF10902A2EB0E02654588BF002227
:104400001344181A03B0F0BD11F8012B04F8012F62
:10441000EDE7302330318370C170031DF1E70000F8
:104420002DE9F04F91B00C46DDF8688016461F4626
:10443000054601F0BFFA036818460993FBF792FEA0
:1044400000230E93D8F800300A90073323F00703B7
:1044500003F1080294F81890D4F800B0C8F80020CE
:10446000D3E90023C4E91223D4E9128A2AF00043D5
:104470000B934FF0FF3240469C4B0B99FCF7D0FA60
:1044800070BB4FF0FF324046984B0B99FCF7AAFAED
:1044900030BB0022002340465146FCF799FA10B188
:1044A0002D2384F84330924B9248B9F1470F94BFC3
:1044B0009846804603234FF0000A23612BF0040343
:1044C000236033462146284600970FAA00F0D4F90E
:1044D000013040F090804FF0FF3011B0BDE8F08F18
:1044E0004246534640465146FCF79AFA48B1BAF163
:1044F000000FB8BF2D238048B8BF84F843307F4BEE
:10450000D3E7636809F0DF015A1C42D106236360D8
:10451000002206920EAACDE904920DAA4BF4806304
:1045200003920DF13302CDE9013223606368424604
:104530000093284653460B91FFF7D4FE0B99804613
:1045400047290D9908D1C81C02DB6368994240DDF8
:10455000A9F102095FFA89F9B9F1650F1FD84A4636
:10456000013904F150000D91FFF71BFF0E9A8246AE
:104570001318012A236102DC2268D20701D5013316
:1045800023619DF83330002B9BD02D2384F84330DA
:1045900097E74729BCD1002BBAD10123B7E7B9F17E
:1045A000660F18D1002963680BDD216113B92268F9
:1045B000D00702D501330B4423614FF0000AA165F7
:1045C000DFE713B92268D20701D50233F4E70123EC
:1045D000F2E74FF067090E9B994205DB23682161E2
:1045E000D807EAD54B1CE7E70029CCBF0122C1F16F
:1045F00002021344E0E723685A0507D423694246C0
:1046000031462846B84701302BD164E7B9F1650F30
:1046100040F2DD80D4E9120100220023FCF7CEF93C
:10462000002833D0012331462846354AB8470130A7
:104630003FF451AFDDE90D239A4202DB2368D8072E
:104640000FD5DDE9092331462846B84701303FF44C
:1046500042AF4FF0000804F11A090E9B013B43459D
:1046600009DC23689B0700F10281E0680F9B9842F8
:10467000B8BF184631E701234A4631462846B847B5
:1046800001303FF428AF08F10108E6E70D9B002B4D
:1046900038DC012331462846194AB84701303FF437
:1046A0001AAFDDE90D23134302D12368D907D8D50A
:1046B000DDE9092331462846B84701303FF40BAF06
:1046C0004FF0000904F11A0A0D9B5B424B4501DCD7
:1046D0000E9B94E70123524631462846B8470130E5
:1046E0003FF4F9AE09F10109EEE700BFFFFFEF7FEC
:1046F0008C78000890780008987800089478000872
:104700009C7800080E9AA36D9A42A8BF1A46002A08
:10471000914637DC4FF0000B29EAE97904F11A02DF
:10472000D4F858A0AAEB09035B4533DCDDE90D237F
:104730009A423BDB2368DA0738D40E9B0D99A3EB32
:104740000A02A3EB01099145A8BF9146B9F1000FF8
:1047500034DC4FF0000829EAE97904F11A0ADDE9AE
:104760000D239B1AA3EB090343457FF77AAF01237F
:10477000524631462846B84701303FF4ACAE08F106
:104780000108ECE71346314642462846B847013057
:10479000C0D1A0E60123314628460B92B84701302C
:1047A0003FF499AE0B9A0BF1010BB9E73146DDE905
:1047B00009232846B8470130BFD18CE64B46314625
:1047C000284608EB0A02B8470130C2D183E60E9AA8
:1047D000012A01DCDB0737D5012342463146284652
:1047E000B84701303FF477AEDDE90923314628466A
:1047F000B84701303FF46FAED4E912010022002324
:10480000FCF7DCF8D8B90E9B08F10102013B3146F8
:104810002846B84701300ED15DE601234A463146AD
:104820002846B84701303FF456AE08F101080E9B08
:10483000013B4345F1DC534604F15002E0E64FF002
:10484000000804F11A09F2E701234246DFE70123D9
:104850004A4631462846B84701303FF43CAE08F19D
:104860000108E3680F995B1A4345F0DCFDE64FF061
:10487000000804F11909F4E72DE9F04716469946B6
:104880008A680B6907469342B8BF1346336091F8B4
:1048900043200C46DDF820800AB1013333602368E1
:1048A000990642BF336802333360256815F0060568
:1048B00006D104F1190AE36832689B1AAB4228DC7E
:1048C00094F84320131E226818BF012392062DD4AA
:1048D0004946384604F14302C047013020D02368DE
:1048E000E56803F00603042B18BF002532684FF07B
:1048F0000006A36808BFAD1A226908BF25EAE5755E
:104900009342C4BF9B1AED181A34B5421AD1002045
:1049100008E00123524649463846C047013003D1DA
:104920004FF0FF30BDE8F0870135C4E73020E118D3
:1049300081F843005A1C94F845102244023382F84F
:104940004310C5E70123224649463846C047013097
:10495000E6D00136D9E700002DE9FF470F7E9146EA
:10496000782F80460C469A460C9D01F1430207D8E9
:10497000622F0AD8002F00F0D980582F00F0A480B1
:1049800004F1420584F842703AE0A7F16303152B65
:10499000F6D801A151F823F0F1490008054A0008B2
:1049A00081490008814900088149000881490008BF
:1049B000054A00088149000881490008814900082A
:1049C00081490008134B0008354A0008F54A0008E1
:1049D0008149000881490008354B000881490008D9
:1049E000354A00088149000881490008FD4A00084D
:1049F0002B681A1D1B682A6004F1420584F84230B6
:104A00000123A4E020682968060601F104030AD501
:104A10000E682B60002E03DA2D23764284F8433093
:104A20000A235E4819E00E6810F0400F2B6018BF93
:104A300036B2EFE72B682068191D2960010601D501
:104A40001E6802E04606FBD51E886F2F0CBF0823A8
:104A50000A235248002184F843106568002DA8BF3E
:104A60002168A560A4BF21F0040121600EB9002DCA
:104A70004DD01546B6FBF3F103FB1167C75D05F892
:104A8000017D3746BB420E46F4D9082B0BD1236873
:104A9000DE0708D5236961689942DEBF302305F837
:104AA000013C05F1FF35521B22614B462146404631
:104AB000CDF800A003AAFFF7DFFE01304CD14FF084
:104AC000FF3004B0BDE8F087344881F845702968AC
:104AD000236851F8046B29601D0614D5DF0744BF15
:104AE00043F0200323601EB9236823F020032360D2
:104AF0001023AFE7236843F020032360782328487E
:104B000084F84530E3E7590648BFB6B2E6E71546F4
:104B1000BBE72B682668181D6169286035061B688D
:104B200001D5196002E07006FBD5198000231546F7
:104B30002361BAE72B6800211A1D2A601D6862688C
:104B4000284600F03BFF08B1401B606063682361AA
:104B5000002384F84330A8E72A46494640462369A3
:104B6000D0470130ABD023689B0713D4E068039B88
:104B70009842B8BF1846A4E701233246494640464A
:104B8000D04701309BD00135E36803995B1AAB42F3
:104B9000F2DCEBE7002504F11906F5E79E78000842
:104BA000AF78000838B50023054D044608462B6051
:104BB00002F0DCF9431C02D12B6803B1236038BD3D
:104BC000F80300201F2938B504460D4604D91623E2
:104BD00003604FF0FF3038BD426C12B152F8213003
:104BE0004BB9204600F030F82A4601462046BDE881
:104BF000384000F017B8012B0AD0591C03D11623F6
:104C000003600120E7E70024284642F82540984742
:104C10000020E0E7024B01461868FFF7D3BF00BF52
:104C20001800002038B50023064D044608461146FA
:104C30002B6002F083F9431C02D12B6803B123607F
:104C400038BD00BFF803002002F068B930B5144643
:104C5000002C05461A469BB005DA8B2303604FF003
:104C6000FF301BB030BD4FF40273ADF80C300CBFF9
:104C7000234604F1FF33029305934FF6FF7300912F
:104C80000491ADF80E3069461E9B01F0B1FA431C49
:104C9000BCBF8B232B60002CE3D00022009B1A703A
:104CA000DFE7000007B5009313460A4601460348B4
:104CB0000068FFF7CBFF03B05DF804FB180000208D
:104CC0002DE9F74F03690C690746A342C0F28280C1
:104CD000013C00F1140501F1140805EB8403019374
:104CE00058F8243055F8242001339A42B2FBF3F6E9
:104CF0004FEA840B08EB840931D34FF0000E404695
:104D0000AC46F24650F8042B93B206FB03E3120CB8
:104D10004FEA134E9BB206FB02E2AAEB0303DCF858
:104D200000A04FEA124E1FFA8AFA5344DCF800A0A2
:104D300092B2C2EB1A4202EB23429BB243EA024315
:104D400081454FEA224A4CF8043BDBD255F80B3040
:104D50002BB9019B043B9D421A462FD33C61384638
:104D600001F0D2F8002825DB28464FF0000C013670
:104D700058F8041BD0F800E08BB2ACEB03031FFA29
:104D80008EF213440A0CC2EB1E4202EB23429BB28A
:104D900043EA0243C1454FEA224C40F8043BE7D2C4
:104DA00055F8242005EB840322B9043B9D421A46A2
:104DB0000AD33C61304603B0BDE8F08F1268043B73
:104DC000002ACBD1013CC6E71268043B002AF0D18F
:104DD000013CEBE70020EEE72DE9F04F16461F46B9
:104DE000446A99B00546CDE90467DDF8948074B94A
:104DF0001020FFF783F90246686220B9EA21A84B28
:104E0000A84801F0F5FAC0E901440460C4606B6A87
:104E1000196851B15A68012393404A608B60284653
:104E200000F034FE00226B6A1A603B1EAFBF002305
:104E3000012223F000430593A8BFC8F80030DDF835
:104E40001490994BB8BFC8F8002033EA090319D170
:104E500042F20F73249A1360C9F31303334300F033
:104E60007F85269B53B9914B22E0914B03930833E6
:104E7000269A1360039819B0BDE8F08F8B4B03930B
:104E80000333F5E7DDE90434CDE90C34DDE90C0149
:104E900000220023FBF792FD804658B10123249A9B
:104EA0001360269B002B00F0588582481860431E33
:104EB0000393DFE716AB019317AB00932846DDE9B8
:104EC0000C2301F0C9F8C9F30A548346002C7FD0A3
:104ED000DDE90C010D9BA4F2FF34C3F3130343F08F
:104EE0007F5141F44011CDF84C800022724BFBF70A
:104EF00045F965A3D3E90023FBF7F8FA64A3D3E9E6
:104F00000023FBF73DF9064620460F46FBF784FADF
:104F100061A3D3E90023FBF7E9FA02460B463046CA
:104F20003946FBF72DF906460F46FBF78FFD0022A9
:104F30008246002330463946FBF74AFD48B15046C9
:104F4000FBF76AFA32463B46FBF738FD08B90AF12F
:104F5000FF3ABAF1160F58D8DDE90C01574B03EBB5
:104F6000CA03D3E90023FBF733FD00284FD0002309
:104F70000AF1FF3A0F93169B1C1B631E099349BF4E
:104F8000C4F1010300230693002354BF0693099341
:104F9000BAF1000F3DDB099BCDF838A053440993CB
:104FA00000230A93229B092B00F28C80052BC4BF9F
:104FB000043B2293229BC8BF0024A3F10203D8BF65
:104FC0000124032B00F28A80DFE803F02D4F4D5BB4
:104FD000DDE916431C4404F23243202BC3BFC3F166
:104FE000400304F2124009FA03F3C3F12003C6BFE1
:104FF00026FA00F0184306FA03F0FBF7FDF9012347
:10500000A1F1F871013C13936FE70123B2E70F9010
:10501000B1E7069BA3EB0A030693CAF100030A93C8
:1050200000230E93BEE700230B93239B002B58DC39
:105030004FF001094B46CDF82090CDF88C9000221E
:10504000686A4260042202F114069E4241684ED909
:10505000284600F0DBFC039000284CD102464FF4B8
:10506000D571174BCCE60123DEE700230B93239B7E
:105070000AEB030909F10103012B0893B8BF0123CF
:10508000DDE70123F2E700BF61436F63A787D23FEB
:10509000B3C8608B288AC63FFB799F501344D33F27
:1050A000CD780008E47800080000F07FC978000897
:1050B000C07800089D7800080000F83F207A0008BA
:1050C00062790008012400230B9422934FF0FF39EA
:1050D00000221223CDF820902392B0E701230B93F6
:1050E000F4E7DDF88C904B46CDF82090A7E701312E
:1050F00041605200A7E76B6A039A1A60089B0E2B67
:1051000000F2A880002C00F0A580BAF1000F34DD79
:105110009A4A0AF00F0302EBC3031AF4807FD3E923
:105120000034CDE910344FEA2A1416D0DDE90C0121
:10513000934B0327D3E90823FBF702FBCDE90401D6
:1051400004F00F048E4E54B9DDE91023DDE90401AB
:10515000FBF7F6FACDE9040129E00227F2E7E107BF
:1051600008D5DDE91001D6E90023FBF7BFF9CDE949
:105170001001013764100836E5E700F0A580DDE98D
:105180000C01CAF100047D4B04F00F0203EBC203D3
:10519000D3E90023FBF7AAF902270023CDE9040194
:1051A000774E2411002C40F08480002BD2D10F9B2D
:1051B000002B00F08B80DDE90434CDE91034DDE90B
:1051C000100100226F4BFBF703FC00287ED0089BE8
:1051D000002B7BD0B9F1000F38DDDDE91001002292
:1051E000694BFBF783F94C46CDE904010AF1FF381E
:1051F00001373846FBF710F9DDE90423FBF776F9B0
:105200000022624BFAF7BCFFA1F15076CDE9100104
:105210001196002C5DD1DDE9040100225C4BFAF708
:10522000ADFF02460B46CDE904233346109AFBF747
:10523000EDFB002840F09C82DDE90401109A06F1A4
:105240000043FBF7C5FB002840F09082DDE90C34F9
:10525000CDE90434179B002BC0F25281BAF10E0F36
:1052600000F34E81454B03EBCA03D3E90034CDE98B
:105270000634239B002B80F2DB80089B002B00F37D
:10528000D78040F07282DDE906010022404BFBF737
:105290002DF9DDE90423FBF7AFFB089C2646002827
:1052A00040F048823123039F0AF1010A07F8013BCD
:1052B00044E2E20705D5D6E90023FBF717F90123FD
:1052C0000137641008366DE7022770E7D046089C66
:1052D0008FE70399294B214412910B9903EBC403E7
:1052E000DDE9106753E90223002955D00020294940
:1052F000FBF726FA3B463246FAF740FFCDE91001AC
:10530000039FDDE90401FBF7A1FB0446FBF784F8EA
:1053100002460B46DDE90401FAF730FF02460B4670
:105320003034CDE90423DDE9102307F8014BFBF706
:105330004FFB002874D1DDE9042300201149FAF75E
:105340001DFFDDE91023FBF743FB002840F0B78089
:10535000129B9F423FF47AAFDDE9100100220A4B15
:10536000FBF7C4F80022CDE91001DDE90401064B8A
:10537000FBF7BCF8CDE90401C3E700BF207A0008C1
:10538000F87900080000F03F0000244000001C40B5
:10539000000014400000E03F30463946FBF7A6F815
:1053A000129BCDE91001039C1493DDE90401FBF786
:1053B0004DFB1590FBF730F802460B46DDE9040182
:1053C000FAF7DCFE159B0646303304F8013B129BCE
:1053D0000F469C424FF0000224D1DDE91001B04B92
:1053E000FAF7CEFE02460B4630463946FBF70EFB77
:1053F000002863D1DDE910230020A949FAF7BEFE99
:1054000002460B4630463946FBF7E2FA00283FF4E5
:105410001DAF149F7B1E149317F8013C302BF8D05E
:10542000C2463BE09F4BFBF761F8CDE90401BCE7C6
:10543000039FDDE90489DDE9062340464946FBF781
:105440007FF9FBF703FB0446FAF7E6FFDDE90623E5
:10545000FBF74CF802460B4640464946FAF78EFEEB
:1054600004F1300607F8016B039EDDF820C0BE1B77
:10547000B44502460B4636D1FAF782FEDDE9062333
:1054800080468946FBF7C2FA58BBDDE90623404651
:105490004946FBF793FA08B1E10722D4284659465A
:1054A00000F0F4FA00233B70249B0AF1010018601D
:1054B000269B002B3FF4DEAC1F60DBE427463B4617
:1054C0001F4613F8012D392A07D1039A9A42F7D1C2
:1054D0003022039908F101080A701A7801321A7013
:1054E0009EE7D046EBE700226E4BFAF7FFFF002263
:1054F000002380468946FBF761FA00289BD0CDE760
:105500000B9A002A00F0D080229A012A00F3AE8084
:10551000139A002A00F0A68003F233430A9C069FE8
:10552000069A01211A440692099A28461A440992B9
:1055300000F062FB0646002F0CDD099B002B09DD05
:10554000BB42A8BF3B46069AFF1AD21A0692099A96
:10555000D31A09930A9BF3B10B9B002B00F0A88090
:10556000002C10DD31462246284600F003FC5A4646
:1055700001460646284600F055FB80465946284617
:1055800000F084FAC3460A9B1A1B04D059462846E9
:1055900000F0F0FB83460121284600F02DFB0E9B16
:1055A0000446002B40F386801A460146284600F048
:1055B000E1FB229B0446012B7FDD4FF000082369AD
:1055C00004EB8303186900F0C9FAC0F12000099BBD
:1055D000184410F01F0000F09280C0F12003042B4B
:1055E00040F38A80C0F11C00069B074403440693E5
:1055F000099B03440993069B002B05DD59461A4677
:10560000284600F011FC8346099B002B05DD21464E
:105610001A46284600F008FC04460F9B002B70D069
:105620002146584600F070FC00286ADA00235946EB
:105630000A22284600F04CFA0B9B83460AF1FF3AF7
:10564000002B00F09481314600230A22284600F006
:105650003FFAB9F1000F064600F39380229B022B1C
:1056600057DC8EE0169BC3F1360357E7089B5C1EA0
:105670000A9BA342B7BF0A9B1C1BE21A0E9BBEBF2C
:105680000A949B180E93089BB8BF0024002BBBBF45
:10569000069B089A069F9F1AACBF089B00233FE712
:1056A0000000E03F000024400A9C069F0B9E42E75A
:1056B0000A9A6BE7229B012B19DC049BBBB9059B63
:1056C000C3F313039BB9059B23F000431B0D1B057C
:1056D00083B14FF00108069B01330693099B013308
:1056E00009930E9B002B7FF46AAF01206FE74FF008
:1056F0000008F6E79846F4E73FF47DAF18461C3003
:1057000072E7089B002B36DC229B022B33DDDDF891
:105710002090B9F1000F0DD121464B4605222846B5
:1057200000F0D6F901460446584600F0EDFB00288B
:105730003FF7B8AD239B039F6FEA030A4FF00008C1
:105740002146284600F0A2F9002E3FF4A7AEB8F19A
:10575000000F05D0B04503D04146284600F096F929
:105760003146284600F092F998E600242646E1E703
:10577000C246264696E50B9BDDF82090002B00F0F4
:10578000FD80002F05DD31463A46284600F04CFBEF
:105790000646B8F1000F5CD02846716800F036F973
:1057A000074628B9024640F2EA217F4BFFF728BBA3
:1057B000326906F10C01023292000C3000F00CF953
:1057C00001223946284600F02FFBB0460646039BCF
:1057D00001330893039B4B440A93049B03F001039A
:1057E0000993089B2146013B58460493FFF768FA4A
:1057F000034641463033069058460B9300F084FB35
:10580000324681462146284600F09AFBC268074688
:105810000B9B02BB0146584600F076FB02460B9BF1
:1058200039462846CDE90B3200F030F9229B0C9A1C
:10583000089F43EA0201099B0B430B9B0DD1392BB7
:1058400029D0B9F1000F01DD069B3133049A1370A2
:1058500076E73046B9E70122E2E7B9F1000F06DB4F
:10586000229941EA0909099959EA010120D1002A3E
:10587000ECDD594601222846089300F0D5FA21466E
:10588000834600F041FB0028089B02DCDED1DA07EA
:10589000DCD5392BD8D13923049A13703B461F46E7
:1058A00017F8012C013B392A50D001321A7047E712
:1058B000002A03DD392BEED00133C7E7089A0A9995
:1058C00002F8013C8A422AD0594600230A2228467F
:1058D00000F0FEF8B04583464FF000034FF00A0297
:1058E0004146284607D100F0F3F880460646089B5B
:1058F0000133089375E700F0EBF83146804600234A
:105900000A22284600F0E4F80646F0E7B9F1000F55
:10591000CCBF4F4601274FF00008039A1744594661
:1059200001222846089300F07FFA2146834600F0C2
:10593000EBFA0028B2DC02D1089BDB07AED43B4671
:105940001F4613F8012D302AFAD0F9E6039A9A423D
:10595000A5D131230AF1010A79E7144BFFF7A8BA60
:10596000269B002B7FF481AA114BFFF7A1BAB9F156
:10597000000F03DC229B022B3FF7CBAE039F214697
:105980005846FFF79DF9039A00F1300307F8013BF1
:10599000BA1A9145BADD594600230A22284600F07A
:1059A00097F88346EBE700BF627900089C7800080F
:1059B000C0780008004870476C010020034610B50D
:1059C000C9B202449342184601D1002003E0047892
:1059D00001338C42F6D110BD0A44914200F1FF33ED
:1059E00000D1704710B511F8014B914203F8014FF7
:1059F000F9D110BD014800F02CBD00BFFC03002010
:105A0000014800F027BD00BFFC03002070B5466AC6
:105A100004460D4676B91020FEF770FB0246606220
:105A200020B96621174B184800F0E2FCC0E9016676
:105A30000660C660666AF36883B1636ADB6853F820
:105A40002500B8B9012101FA05F6721D2046920021
:105A500000F05EFB60B1C0E901560EE02122042196
:105A6000204600F055FB636AF060DB68002BE4D150
:105A7000002070BD026843F825200023C0E90333ED
:105A8000F7E700BFCD7800087379000870B5466A63
:105A900005460C4676B91020FEF730FB02466862D8
:105AA00020B98A21084B094800F0A2FCC0E9016630
:105AB0000660C6603CB16B6A6268DB6853F822100E
:105AC000216043F8224070BDCD780008737900084A
:105AD0002DE9F04107460C461E4600200D6901F1F4
